:020000040800F2
:10500000414D502D434835000000000000000000D5
:020000040800F2
:1060000076312E302E30000000000000000000002D
:020000040800F2
:10601000C01900207561000851B00008D3A2000823
:1060200035B000083563000891D100080000000079
:10603000000000000000000000000000F1B30008B4
:106040006F6A00080000000099B1000829B9000833
:106050008F6100088F6100088F6100088F61000860
:106060008F6100088F6100088F610008716A000865
:106070008F6100088F6100088F6100088F61000840
:106080008F6100088F6100088F6100088F61000830
:106090008F6100088F6100088F6100088F61000820
:1060A000396300088F6100088F6100088F61000864
:1060B0008F6100088F6100088F6100088F61000800
:1060C0008F6100088F6100088F6100088F610008F0
:1060D0008F610008D5A200088F6100088F61000859
:1060E0008F6100088F6100088F6100088F610008D0
:1060F0008F6100088F6100088F61000800000000B8
:10610000000000000000000000000000000000008F
:1061100000000000000000008F6100088F6100088F
:106120008F6100088F6100088F6100088F6100088F
:106130008F6100088F6100088F6100088F6100087F
:106140008F61000800000000000000008F6100085F
:106150008F6100088F6100088F61000875B000082A
:10616000DFF80CD000F07AF80048004729D2000888
:10617000C01900200648804706480047FEE7FEE7B2
:10618000FEE7FEE7FEE7FEE7FEE7FEE7FEE7FEE7E7
:10619000C1B90008616100082DE9F05F05460020E3
:1061A00092469B4688460646814640241BE0284688
:1061B00041464746224600F020F853465A46C01A48
:1061C000914110D311461846224600F038F82D1A96
:1061D00067EB01084F4622460120002100F02FF80E
:1061E00017EB00094E41201EA4F10104DFDC4846F4
:1061F00031462A464346BDE8F09F202A04DB203A78
:1062000021FA02F00021704721FA02F3D040C2F1D6
:106210002002914008431946704740EA01039B075A
:1062200003D009E008C9121F08C0042AFAD203E00B
:1062300011F8013B00F8013B521EF9D27047202AA9
:1062400004DB203A00FA02F1002070479140C2F1CD
:10625000200320FA03F3194390407047064C074D82
:1062600006E0E06840F0010394E807009847103426
:10627000AC42F6D3FFF778FFC8D20008E8D2000896
:1062800070B58C1810F8015B15F0070301D110F8F8
:10629000013B2A1106D110F8012B03E010F8016B25
:1062A00001F8016B5B1EF9D12B0705D40023521EA8
:1062B0000DD401F8013BFAE710F8013BCB1A921C10
:1062C00003E013F8015B01F8015B521EF9D5A1420E
:1062D000D8D3002070BD000030B4416B4C68134926
:1062E000096801EBC103124901EB83025460446B5E
:1062F000246841F82340416BC968D160416B8968CB
:106300009160416B09691161002107E0446B01F163
:106310001403E35C5418491C2375C9B213698B42FA
:10632000F4D830BC2021014800F074BBF0130020E9
:10633000600F0020FEE7000010B5064800F01EFECA
:1063400000F0F2FC002803D1BDE8104000F082BC50
:1063500010BD00003015002010B5002958D0826B08
:106360004FF4D873046803EB0113E45814F00404E9
:1063700094600468E4584DD0E40854600468E3581D
:1063800003F00203D3604FF4DA73046803EB0113E4
:10639000E45804F00F04146111620468E358C3F375
:1063A0000723D3614FF4DC73046803EB0113E45853
:1063B00014750468E458240A54750468E458240CDD
:1063C00094750468E3581B0ED3754FF4DE730468AC
:1063D00003EB0113E45814760468E458240A547655
:1063E0000468E458240C94760468E3581B0ED376B2
:1063F0000368202289B11A610268536923F05003AF
:10640000536190F83C20222A0DD0322A0BD00FE0A5
:10641000426BA5E7640D1460B0E7DA600268536967
:1064200023F00A03ECE70268536923F40F43536136
:1064300012220123002990F83C1006D0522915D0D1
:10644000622916D0722906D115E042290ED06229A0
:1064500008D0722908D080F83C3000BF01F090F8D5
:10646000002010BD322107E0522105E080F83C20D9
:10647000F4E7222100E0422180F83C10EEE74FF4DF
:10648000805009B104F08ABE04F092BE002070472B
:106490000020704710B50C4A0A48A2F18003126828
:1064A000D0F81812002003EB82120B5C1354401C2E
:1064B000C0B24028F9D30221034800F0ABFA002013
:1064C00010BD000020020020900B002070B51B4A78
:1064D0000A24234651791279C1F11406C2F1140538
:1064E00030B1012808D002280DD0032815D10EE0C4
:1064F0000A2904D9F4B202E00A2900D20C460A2A79
:106500000BD9EBB209E00A2904D9F4B202E00A2956
:1065100000D20C460A2A00D21346C3F10A00201A00
:1065200010F0FF010548A0F11300017101D00A2904
:1065300001D901210171C8B270BD0000DD01002048
:1065400010B50020FFF7C2FF074C20700120FFF7B5
:10655000BDFF60700220FFF7B9FFA0700320FFF7B6
:10656000B5FFE07010BD0000CF01002010B500F0B5
:10657000DBFB00281AD10E4800680D4CC0F3001058
:1065800024342168262905D960B100202060262006
:1065900005F0ACF92068BDE81040C0F12600C0B29B
:1065A00005F0A4B9262020600020F1E710BD00000E
:1065B000000400402DE9FC41684600F09BFB9DF87B
:1065C000000001264E4C01280AD1207810B1032882
:1065D00002D003E0267001E00420207000F0D4F91E
:1065E000207800250227072815D2DFE800F01404E0
:1065F00016234B6F8100402004F08EFB102004F026
:106600008BFB802004F086FB202004F083FB00F04D
:106610007DFB60712770BDE8FC819DF801000028BA
:10662000F9D1402004F076FB102004F073FB032026
:106630002070F0E7E07820B101280FD002281FD1A8
:1066400018E094F90100411C01D02E49086005F0C2
:10665000C1F86070401CDED0E670DCE704F0DAFDC3
:106660002071411CD7D0264994F901201431885457
:10667000E770D0E704F0BEFE06F052FD2028CAD134
:10668000E570C8E7204804F07DFE204804F07AFE5B
:10669000402004F03FFB102004F03CFB802004F07D
:1066A00039FB202004F036FB194804F06BFE194832
:1066B00004F068FE01223221154800F085F901221C
:1066C0003221144800F080F90520B1E79DF801005F
:1066D0000028A0D10E4804F055FE0E4804F052FEEA
:1066E000402004F017FB102004F014FB06209FE765
:1066F000607910B1202004F00FFB2570C0E7000086
:106700000001002024040040B56C0008BB6C0008A8
:10671000556C00085B6C000810B500F0E7F804F059
:10672000F3FC00F00AF800F0BDF8FFF71FFF00F0DF
:1067300013F8BDE81040FFF73DBF10B500F0ECFACC
:10674000032803D000F0E8FA042804D1BDE8104083
:10675000012000F095B910BD70B500F0EBFA0028EB
:106760007ED04F4DA5F10D04A8780028A07816D052
:1067700010B1012825D105E0012004F05DFCA078CE
:10678000401C1DE02978687881421AD0302004F03E
:1067900017FFE070202814D12878687011E080B1CC
:1067A00001280ED1002004F047FCFF212970302081
:1067B00004F006FFE070202801D1287868700020DE
:1067C000A070374DAD1DEE1DA879B17988420FD06C
:1067D00050B1002004F030FCA979202004F0F0FE34
:1067E000E070202802D003E00120F3E7A879B0711F
:1067F00021786078814206D02C2004F0E1FE202828
:1068000001D12078607028793179884207D0FFF76C
:1068100097FE06F04FFC202801D128793071687965
:106820007179884207D0FFF78BFE06F043FC2028E1
:1068300001D170796871E978F078814207D000223F
:10684000512004F0F5FD202801D1E878F070A978F6
:10685000B078814209D00022542004F0E9FD00E024
:106860001CE0202801D1A878B07069787078814246
:1068700007D00022572004F0DBFD202801D16878E2
:106880007070074C143460792179884206D000205A
:1068900004F01CFE202801D12079607170BD000039
:1068A000D701002010B500F045FA012812D000F001
:1068B0003BFA28B1002005F013F8102004F02AFA62
:1068C000202004F027FA002000F0E9F8BDE810408D
:1068D00004F078BD00F028FA10B9202004F01CFA6A
:1068E000BDE81040012000F0DAB8000070B50F4A92
:1068F00000200D49127814E001EB00146379012B9C
:106900000ED1D4E902359D420AD301EB00100025D7
:10691000C560206880472079002800D1657170BD6E
:10692000401C9042E8D170BD80140020C9010020B5
:1069300090F83C10122923D0222180F83C1000212D
:10694000016401684A6942F480724A6101684A69D7
:1069500042F400724A6101684A6942F480624A6105
:1069600001684A6942F400624A6101684A6942F476
:1069700000424A610068416941F00201416170478B
:10698000422180F83C10F5E70149FF20087070476C
:10699000EB0100200B4B10B50021094A1B7805E0E4
:1069A000994201D1012010BD491CC9B202EB01146A
:1069B00024688442F4D102EB01110020C86010BDAC
:1069C00080140020C901002070B5104D002348B983
:1069D000981E70BD864202D14FF0FF3070BD082B6B
:1069E00012D05B1C05EB03142668002EF2D105EBD8
:1069F0000315EE60A16020602271012004496071DE
:106A0000581C087058B270BD002070BD8014002062
:106A1000C901002030B502680024521C02608A427D
:106A200000D304608268521C8260D0E900239A423D
:106A30000CD1C3684CF250355B1CC360AB4200D92B
:106A4000C46022B1521E42600121816030BD491EE6
:106A50004160F9E78368002B08D04268521C42600D
:106A60008A4201D3002141605B1E836070477047FA
:106A700010B5022000F0B4FFBDE8104004F0EEBDF8
:106A800030B1012807D0022808D1012004F09ABBB8
:106A9000012004F083BB012004F08ABB704730B1B1
:106AA000012807D0022808D1012004F0A9BB012049
:106AB00004F092BB012004F099BB704730B50B4C39
:106AC0000022094B247805E0A24201D1012030BD0B
:106AD000521CD2B203EB02152D688542F4D103EBB0
:106AE00002104171002030BD80140020C901002037
:106AF00010B5012804D040F2662108A006F092FBF0
:106B000016490020C8611648016941F0040101617D
:106B1000016941F04001016110BD00002E2E2F449B
:106B20007269766572732F53544D333246317878DB
:106B30005F48414C5F4472697665722F5372632FD0
:106B400073746D3332663178785F68616C5F666C40
:106B50006173685F65782E6300000000000200200A
:106B600000200240064A0021D16106490A6942F02C
:106B700002020A614861086940F0400008617047FC
:106B80000002002000200240044B0022DA61044A87
:106B9000136943F001031361018070470002002074
:106BA0000020024014480022C168CB06134904D5D6
:106BB000CA6942F00202CA611022C3685B0705D5A8
:106BC000CB6943F00103CB6142F00402C369DB07E8
:106BD00007D0CB6943F00403CB61C16921F0010107
:106BE000C161A2F58071013901D0C2607047C169ED
:106BF00021F00101C1617047002002400002002025
:106C000070B5054601F01AF90646114C09E0681CFA
:106C100007D025B101F012F9801BA84201D9032049
:106C200070BDE068C007F2D1E068800601D5202081
:106C3000E060E068C00605D4E069C00702D1E06802
:106C4000400703D5FFF7AEFF012070BD002070BDE7
:106C500000200240402004F0D3BA102004F0D0BA43
:106C600010B5044600F0A6FE0D493420C8600D485A
:106C70002168016061684160A1688160E168C1606C
:106C8000094900F041FD38B100F0FEFD0549103121
:106C9000C8614FF0FF3010BD00F0FCFD012010BDB9
:106CA0000020024000150020F40100200068086068
:106CB00001207047802004F0A3BA202004F0A0BA7D
:106CC000F8B50A4D00240A4E274669462846FFF7C4
:106CD000EDFF0098C14311F0FF0F05D03055641C43
:106CE0002D1D052CF1DBF8BD3755F8E700F0010844
:106CF00014010020044951F8212F02608A88828003
:106D00008979817170470000CA01002001484079EB
:106D100070470000EB01002002480088C0F3042007
:106D200070470000F800002001480078704700001C
:106D3000000100200148007870470000FC0100209D
:106D40000148407870470000CA01002030B50C4C63
:106D500000220A4B247805E0A24201D1012030BD77
:106D6000521CD2B203EB02152D688542F4D103EB1D
:106D70000210C0680860002030BD000080140020B0
:106D8000C901002010B5802003F0C4FF402003F0AB
:106D9000C1FF202003F0BEFF102003F0BBFF002046
:106DA000FFF77DFE04F00EFB0020FFF769FE0121D6
:106DB0000A48FFF783FEAFF23300FFF7EBFD072031
:106DC00001F0A2FB0121084602F054F804F0B6FDE0
:106DD000BDE81040072001F0C7BB000019AC000857
:106DE0002DE9F041054648690C461B2804D94FF4AB
:106DF000BA7153A006F016FAA06930B1012804D088
:106E000040F275114EA006F00DFAE06930B101288C
:106E100004D04FF4BB714AA006F004FA206930B1E7
:106E2000012804D040F2771145A006F0FBF9206A52
:106E300030B1012804D04FF4BC7141A006F0F2F942
:106E4000606A1C2804D940F279113DA006F0EAF9E5
:106E5000227D012101FA02F02A68D2F80032666A26
:106E600023F47C5301EB06210B43C2F8003229685E
:106E7000D1F81C228243C1F81C224FF41071E3693F
:106E80000A1DBBB92B68D3F80C628643C3F80C62A9
:106E9000A6896368676966F31F432E6801EBC7071D
:106EA000F35126892368676966F31F432E6802EB56
:106EB000C707F351E369012B17D12B68D3F80C6294
:106EC0000643C3F80C6226886368676966F31F434C
:106ED0002E6801EBC70173502389E168666963F38B
:106EE0001F412B6802EBC6029950A169002929684D
:106EF000D1F8042210D00243C1F8042221690029EC
:106F00002968D1F8142209D052EA0002C1F81422EB
:106F1000216A012904D009E08243EDE78243F5E7C5
:106F20002968D1F81C220243C1F81C222868D0F835
:106F3000001221F00101C0F800120020BDE8F0812C
:106F40002E2E2F447269766572732F53544D33324F
:106F5000463178785F48414C5F4472697665722F9C
:106F60005372632F73746D3332663178785F686162
:106F70006C5F63616E2E6300704700002DE9F04185
:106F8000044600680026C168C1F300134169C1F3DB
:106F9000C002102113B10AB14E01C160206802691C
:106FA0004369C2F30012C3F380131AB113B146F45C
:106FB00080660161216848694FF00105C043C00740
:106FC0004ED18A687648904323D000208B68754A5A
:106FD0009A4320D000228F68734BBB431DD00023FF
:106FE000104318433CD088688A68C0F340008B681F
:106FF000C2F3402203F001031043184329D04A6929
:10700000204622F001024A6194F83C10122906D071
:107010000AE00120DAE70122DDE70123E0E7016869
:107020004A6922F40F424A6190F83C10422908D084
:10703000522908D0722908D080F83C5000F0B8FAE4
:1070400009E0222102E0322100E0622180F83C10B8
:10705000F4E746F4006620688168544A1143816071
:107060002168C868496910F0030FC1F3400104D0DA
:1070700019B100212046FFF76FF9216808694969B5
:1070800010F0030FC1F3001104D019B10121204603
:10709000FFF762F9206C30432064206881694269FF
:1070A00011F0010F4369C2F30022C3F3C03305D0CE
:1070B00022B11BB1216C41F0010121648169C1F34E
:1070C00040034169C1F340224169C1F3C0312BB192
:1070D00022B119B1216C41F0020121648169C1F32F
:1070E000800341694269C1F38021C2F3C0322BB1F0
:1070F00021B11AB1216C41F004012164816911F0C0
:10710000700F08D000224169C1F3C0234169C1F367
:10711000C03112B121E00122F5E7F3B1E9B1816993
:1071200001F0700140292FD006DC102909D0202958
:107130000BD030290DD123E0502929D0602908D166
:107140002AE0216C41F0080102E0216C41F01001BD
:107150002164816921F070018161206C00280DD0CB
:1071600021680420486084F83C502068416948F652
:107170005B72914341612046FFF7FEFEBDE8F0815E
:10718000216C41F02001E3E7216C41F04001DFE791
:10719000216C41F08001DBE7216C41F48071D7E77D
:1071A00001000004000100080000011009050100B1
:1071B0002DE9F04104004FF0000577D081492068A7
:1071C000884206D08049884203D0B8217FA006F0CB
:1071D00029F8A06928B1012803D0B9217BA006F0C5
:1071E00021F8E06928B1012803D0BA2177A006F080
:1071F00019F8206A28B1012803D0BB2173A006F03A
:1072000011F8606A28B1012803D0BC216FA006F0F4
:1072100009F8A06A28B1012803D0BD216BA006F0AF
:1072200001F8E06A28B1012803D0BE2167A005F06B
:10723000F9FFA06860B1B0F1804F09D0B0F1004F04
:1072400006D0B0F1404F03D0BF2160A005F0EAFFA7
:10725000E06860B1B0F1807F09D0B0F1007F06D066
:10726000B0F1407F03D0C02158A005F0DBFF2069BA
:10727000B0F5702F03D9C12154A005F0D3FF606988
:10728000B0F5E00F03D9C22150A005F0CBFF606834
:10729000401EB0F5806F03D3C3214CA005F0C2FFA0
:1072A00094F83C00002620B108E0FFE70120BDE88B
:1072B000F08184F83D60204600F0A4F8022084F8B4
:1072C0003C002068016821F002010160206801682B
:1072D00041F00101016000F0B1FD07464FF00308E5
:1072E00005E000BF00F0AAFDC01B0A2853D82068A3
:1072F0004068C007F6D021684868C00758D0A06928
:10730000012801D145F08005E06901282FD025F042
:107310004000226A012A2DD020F02000626A012A52
:107320002BD020F01000A26A012A29D020F00800FA
:10733000E26A012A27D020F004000A6822F0FC0249
:1073400002430A60D4E902010843D4E9041211435C
:1073500008436168491E08432168C86120680168C4
:1073600021F00101016000F069FD054618E045F0DB
:107370004000CEE740F02000D0E740F01000D2E718
:1073800040F00800D4E740F00400D6E700F056FDD6
:10739000401B0A2804D904F83C8F0320667086E756
:1073A00020684068C007F1D120684068C00703D05A
:1073B000042084F83C0079E72664012084F83C002E
:1073C000002074E700640040006800402E2E2F4427
:1073D0007269766572732F53544D33324631787823
:1073E0005F48414C5F4472697665722F5372632F18
:1073F00073746D3332663178785F68616C5F636196
:107400006E2E630010B500681A4986B088422FD1ED
:107410001948C16941F00071C161C069184C00F0A0
:10742000007004904FF48070009014480190002088
:1074300002906946204600F0DFFA601500900220B5
:107440000190032003906946204600F0D5FA0D48CC
:10745000416821F4C04141F0E06141F48041416064
:1074600000221146142001F0AFF8142001F07CF83E
:1074700006B010BD00640040001002400000221061
:10748000000C01400000014070B50D00044610D012
:10749000012D05D040F2ED312BA005F0C3FE18E020
:1074A00094F83C00322828D094F83C00522824D08C
:1074B00007E094F83C0022281FD094F83C004228B2
:1074C0001BD094F83C00622817D094F83C00722836
:1074D00013D094F83D0001280FD0012084F83D001E
:1074E000622094F83C2072214DB1122A11D0222A38
:1074F00010D0422A11D032200CE0022070BD122A96
:1075000005D0322A06D0522A07D0222002E042209B
:1075100000E0522084F83C0001E084F83C10002098
:10752000206421684A6948F601731A434A6184F865
:107530003D002068416925B141F0500141610020C2
:1075400070BD41F00A01F9E72E2E2F44726976656D
:1075500072732F53544D3332463178785F48414C23
:107560005F4472697665722F5372632F73746D3343
:1075700032663178785F68616C5F63616E2E63009C
:1075800010B504460748FFF705FA07492068884206
:1075900007D12046FEF7A0FEBDE810400348FFF7E4
:1075A000C7B910BD856D000800640040301500208B
:1075B000704700002DE9F05F90F8211000240229A7
:1075C00003D004218163012485E001680A6822F068
:1075D0000E020A6001680A6822F001020A603F4E4A
:1075E0003E4FB215DFF8F4C0DFF8F090DFF8ECA002
:1075F000DFF8E8B0DFF8E4E00168783F1301150236
:10760000ACF1640CA9F15009AAF13C0AABF1280BCA
:10761000AEF1140E4FF48018B14227D9B9420ED002
:10762000614512D049451DD0514518D0594518D053
:10763000714501D1424615E0294EB14201D10122E6
:1076400010E0274E1436B14201D110220AE0244E38
:107650002836B14206D0224A3C32914201D11A4624
:1076600000E02A461E49091F0A602BE0B94213D0E8
:10767000614517D0494522D051451DD059451DD0EF
:10768000714501D142461AE0B14202D14FF08072F9
:1076900015E0134EB14201D1012210E0104E143614
:1076A000B14201D110220AE00D4E2836B14206D077
:1076B0000B4A3C32914201D11A4600E02A46074962
:1076C00080394A60012180F82110002180F82010C3
:1076D000416B01B188472046BDE8F09F8000024021
:1076E0000804024070B5044600F0A8FB0546601C83
:1076F00002D004480078044400F0A0FB401BA042E4
:10770000FAD370BD040000202DE9F05F044648481C
:107710000F460126017E01293FD0012183460176D3
:10772000DFF8108120684CF2503940B1022837D080
:10773000B82141A005F076FD2068022830D0A0686D
:10774000DFF834A14FF0FF35B0F1006F09D3BAF87C
:107750000010B1F5807F36D080293ED0474988425D
:107760000AD9F92134A005F05DFDBAF80000B0F5A2
:10777000807F2BD0802833D0D4E9020105EBC121D2
:1077800001443E48814203D9FA212BA005F04AFD6D
:107790004846FFF735FA50B344E00220BDE8F09FB9
:1077A0004C464846FFF72CFA98BB0120FFF7A0F99A
:1077B0002046FFF725FAD8F81010064621F00401FC
:1077C000C8F810102EE02E498842CAD8D4E9020128
:1077D00005EBC12101442A48D4E72A498842C0D890
:1077E000D4E9020105EBC12101442648CAE73D6006
:1077F000A56811E02846FFF7B5F94846FFF700FAFB
:10780000D8F81010060021F00201C8F8101001D0BD
:107810003D6007E005F50065D4E9020100EBC120F9
:10782000A842E7D800218BF818103046B6E70000D0
:1078300000020020002002402E2E2F44726976653F
:1078400072732F53544D3332463178785F48414C30
:107850005F4472697665722F5372632F73746D3350
:1078600032663178785F68616C5F666C6173685FFF
:1078700065782E6300000000E0F7FF1FFFFF00089F
:10788000FFFF0308FFFF01080148C06970470000BF
:10789000000200200348016941F0800101610020DD
:1078A00070470000002002402DE9F05F06462C489A
:1078B0000D460024017E17469846012924D0012157
:1078C00081460176012E07D0022E05D0032E03D06B
:1078D000C22124A005F0A6FCB5F1006F09D3304801
:1078E0000088B0F5807F12D0802812D02D488542C4
:1078F00003D9C3211BA005F095FC4CF2503A504629
:10790000FFF77EF938B126E00220BDE8F09F264857
:10791000EDE72648EBE7012E02D0022E00D0042628
:10792000D346DFF88CA0220141463846FEF765FCBD
:1079300081B205EB4400FFF727F95846FFF760F9DD
:10794000DAF8102022F00102CAF8102018B9641CDD
:10795000E4B2B442E7D3002289F81820D5E700004A
:10796000000200202E2E2F447269766572732F5309
:10797000544D3332463178785F48414C5F447269E8
:107980007665722F5372632F73746D33326631785C
:10799000785F68616C5F666C6173682E63000000DD
:1079A000E0F7FF1FFFFF0008FFFF0308FFFF0108CC
:1079B00000200240064900200A69120607D5054A40
:1079C0004A60054A4A600969090600D501207047E6
:1079D0000020024023016745AB89EFCD70470000CE
:1079E000044910B50A68024202D00860FFF7F6FFAA
:1079F00010BD0000140401402DE9F84FDFF8A8B2D3
:107A00000D4604464FF0000958450FD0A748844260
:107A10000CD0A748844209D0A648844206D0A64884
:107A2000844203D0CD21A5A005F0FCFB2868010409
:107A3000090C01D0000C03D0CE21A0A005F0F2FB70
:107A40006868F8B101281DD011281BD0022819D070
:107A5000122817D0A849884214D0A849884211D0CA
:107A6000A74988420ED0A74988420BD0A649884230
:107A700008D0A649884205D0032803D0CF218FA083
:107A800005F0D0FB00274FF0010A00BF2E680AFA6C
:107A900007F806EA080646456FD15C450FD08348D3
:107AA00084420CD08248844209D08248844206D065
:107AB0008148844203D0DD2180A005F0B3FB8E48CD
:107AC00069680A1A814259D00EDC032976D006DC97
:107AD000002953D0012919D002296AD131E0112996
:107AE00021D0122965D13AE0B2F5881F46D006DCD4
:107AF000B2F5803F42D0B2F5801F5AD13EE0B2F5D8
:107B0000001F3BD0B2F5041F53D137E0E8680228CC
:107B100007D0012805D0032803D0E52167A005F090
:107B200081FBE8683FE0E868022807D0012805D01B
:107B3000032803D0EC2161A005F074FBE868001D68
:107B400031E0E868022807D0012805D0032803D0D7
:107B5000F3215AA005F066FBE868083023E0E868E6
:107B6000022807D0012805D0032803D0FA2153A00A
:107B700005F058FBE8680C3015E089E0A86888B18A
:107B8000012812D0022808D040F207114BA005F0BE
:107B900049FBA86830B1012807D04FF00809C4F8A4
:107BA000148006E00420814603E04FF00809C4F881
:107BB0001080FF2E05D8224605E0FFE74FF00000B9
:107BC000F1E704F104024FEA870001D9A0F1200097
:107BD00013684FF00F0101FA00FC23EA0C0309FAC5
:107BE00000FC43EA0C0313606868C00056D548489F
:107BF000826942F001028261806927F0030200F08D
:107C000001000090434802449068BB071B0F994055
:107C100088435C4501D100210FE024498C4201D109
:107C200001210AE022498C4201D1022105E02149CB
:107C30008C4201D1032100E004219940014391606D
:107C40006868C0033448016801D5314300E0B1439E
:107C50000160686880033148016801D5314300E064
:107C6000B14301606868C00205D52C48001D016859
:107C70003143016004E02949091D0868B0430860E8
:107C80006868800205D525490831086830430860D6
:107C900004E0224808300168B14301607F1C102FC6
:107CA000FFF4F4AEBDE8F88F00080140000C01407D
:107CB0000010014000140140001801402E2E2F44F6
:107CC0007269766572732F53544D3332463178782A
:107CD0005F48414C5F4472697665722F5372632F1F
:107CE00073746D3332663178785F68616C5F67708A
:107CF000696F2E63000000000000111000002110C9
:107D0000000031100000121000002210000032109C
:107D10000010024000000140000401400404014042
:107D200070B50C00054604D140F2C31103A005F064
:107D300079FAA868204000D0012070BD2E2E2F4473
:107D40007269766572732F53544D333246317878A9
:107D50005F48414C5F4472697665722F5372632F9E
:107D600073746D3332663178785F68616C5F677009
:107D7000696F2E630000000070B50C00054604D149
:107D800040F2F91103A005F04DFAE8686040E860A0
:107D900070BD00002E2E2F447269766572732F53CA
:107DA000544D3332463178785F48414C5F447269B4
:107DB0007665722F5372632F73746D333266317828
:107DC000785F68616C5F6770696F2E630000000008
:107DD00070B515460C00064604D140F2E31108A028
:107DE00005F020FA45B1012D04D04FF4F27104A042
:107DF00005F018FA346170BD2004306170BD0000D8
:107E00002E2E2F447269766572732F53544D333280
:107E1000463178785F48414C5F4472697665722FCD
:107E20005372632F73746D3332663178785F686193
:107E30006C5F6770696F2E63000000000148806806
:107E40007047000004000020704770472DE9F05F84
:107E500002680446D2F818805569566890F83E00CA
:107E60007449DFF8D0A1DFF8CCB1DFF8CC918F1CDA
:107E70000AF17E0A0BF13E0B102812D0402810D0D8
:107E80000D425BD0B00559D5936920460021DB43F4
:107E90005B0700D501219269D243120648D5828939
:107EA00047E015F0011F05D0B00503D5204602F0CC
:107EB0003CFD10E05F48801D054205D0B00503D5AC
:107EC000606CC0B2106106E00D4204D0B00502D56E
:107ED000204602F09DFC18EA090F14D015EA0A0F9B
:107EE00008D0700506D53D4206D12046BDE8F05FBA
:107EF00002F00ABC3D421FD0B0051DD52046BDE8AA
:107F0000F05F02F0C1BB15EA0B0F08D0700506D573
:107F10003D4206D12046BDE8F05F02F013BB3D4272
:107F20000AD0B00508D52046BDE8F05F02F0A6BA39
:107F3000028B92B2FFF789FFBDE8F09F3D480E30FB
:107F4000054206D0B00504D52046BDE8F05F02F03A
:107F500019BD18EA090F4FF0280134D015EA0A0FAD
:107F600023D0700521D53D4221D194F83D302046E3
:107F7000628D002AE0D0426A541C44620468127880
:107F80002261428D521E4285428D002AD4D1292B76
:107F9000D2D10268536823F48063536021220263C4
:107FA00080F83D1000F037FAC6E73D42C4D0B00576
:107FB000C2D5608D0028BFD0606A411C6162216813
:107FC0000078086131E015EA0B0F22D0700520D54A
:107FD0003D4220D194F83D302046648D002CABD03A
:107FE0001469426A551C45621470428D521E4285C6
:107FF000428D002AA0D12A2B9ED10268536823F417
:10800000806353602222026380F83D1000F002FA80
:1080100092E73D4290D0B0058ED5608D00288BD080
:108020001169606A421C62620170608D401E608549
:1080300082E700000200010004001000704790F881
:108040003D00704770B5040074D0774920688842BD
:1080500007D07649884204D040F27D1174A005F023
:10806000E1F860688049401E884204D94FF4BF712E
:108070006FA005F0D7F8A0684FF4804530B1A84252
:1080800004D040F27F116AA005F0CCF8E068800AC5
:1080900004D04FF4C07166A005F0C4F82069A8426E
:1080A00007D0B0F5404F04D040F2811160A005F038
:1080B000B9F8606930B1012804D04FF4C1715CA0F7
:1080C00005F0B0F8A06930F0FE0004D040F2831152
:1080D00057A005F0A7F8E06930B1402804D04FF46C
:1080E000C27153A005F09EF8206A30B1802804D0F8
:1080F00040F285114EA005F095F894F83D0000255A
:1081000020B984F83C50204600F05AF9242084F825
:108110003D002068016821F00101016001F0A4F92F
:10812000524A6168914202D8514901E002E0514946
:10813000884201D2012070BD4F492368B0FBF1F1A4
:1081400059606368934206D94FF4967359434FF4CC
:108150007A73B1FBF3F12368491C1962616891429B
:1081600010D84900401EB0FBF1F2521CC2F30B02C2
:10817000042A01D2042023E0B0FBF1F0401CC0F33C
:108180000B001DE0A368D3B301EBC10202EB0116A3
:10819000421EB2FBF6F2521C42F48042120537D066
:1081A00073B301EBC10202EB0111401EB0FBF1F011
:1081B000401CC0F30B0040F4804000BF40F400407E
:1081C0002168C861D4E90701084321680860D4E93F
:1081D0000310084321688860D4E905010843216839
:1081E000C8602068016841F0010101602564202019
:1081F00084F83D00256384F83E50002070BD00E007
:1082000008E001EB4106421EB2FBF6F2521CC5E744
:108210000120D5E701EB4101401EB0FBF1F0401C0D
:10822000C0F30B00CAE700000054004000580040B3
:108230002E2E2F447269766572732F53544D33324C
:10824000463178785F48414C5F4472697665722F99
:108250005372632F73746D3332663178785F68615F
:108260006C5F6932632E63007F1A0600A0860100EE
:1082700080841E0000093D0040420F007047704797
:10828000704700002DE9F84F1F4690468A46044685
:10829000DDF82890FFF7D2FD064694F83D0020282F
:1082A0007ED11923012243492046009602F0FFFBAC
:1082B00000287DD194F83C00012879D0012084F871
:1082C0003C0020680168C90703D1016841F0010141
:1082D00001602068016821F400610160212084F8B8
:1082E0003D00102084F83E0000252564C4F8248059
:1082F00067853148E062608D208533464A465146A5
:10830000204602F077F928B1206C84F83C5004280C
:108310004CD00DE0206841698069009030E0324621
:108320004946204602F038FC28B1206C042838D099
:108330000320BDE8F88F606A411C61622168007803
:108340000861608D401E6085208D401E80B22085B2
:1083500021684A69D24352070BD450B1606A421C6B
:10836000626200780861608D401E6085208D401E2D
:10837000208532464946204602F072FB0028D4D1BF
:10838000208D0028CBD154F83D0B016841F40071D9
:108390000160202004F81E09E57765770020C8E712
:1083A00006E02068016841F4007101600120C0E727
:1083B0000220BEE7020010000000FFFF7047704778
:1083C00000B50068104985B088421BD14FF4406069
:1083D0000090122001900320039069460B48FFF79C
:1083E0000BFB0B48C16941F48001C161C0690022E7
:1083F00000F4800004901146212000F0E5F82120CF
:1084000000F0B2F805B000BD00580040000C01407B
:10841000001002407047704702488168027811449A
:108420008160704704000020074810B5016841F0E2
:1084300010010160032000F017F9002000F006F899
:1084400000F024F8002010BD0020024070B50D4D52
:1084500004464FF47A712878B1FBF0F00A490968B4
:10846000B1FBF0F001F0D0FB48B9102C07D200228C
:108470002146501E00F0A8F800206C6070BD01205D
:1084800070BD000004000020000000201C4808B55A
:10849000816941F001018161806900F00100009073
:1084A000032000F0E1F8002211466FF00B0000F00D
:1084B0008BF8002211466FF00A0000F085F80022C8
:1084C00011466FF0090000F07FF800221146501F9E
:1084D00000F07AF800221146101F00F075F8002213
:1084E0001146901E00F070F800221146501E00F058
:1084F0006BF80448416821F0E061416008BD00006C
:10850000001002400000014010B5040003D5DE2138
:1085100006A004F087FE04F01F01012088406109D5
:10852000890001F1E021C1F8800110BD2E2E2F44F9
:108530007269766572732F53544D333246317878B1
:108540005F48414C5F4472697665722F5372632FA6
:1085500073746D3332663178785F68616C5F636F16
:10856000727465782E63000010B5040003D5CE2127
:1085700006A004F057FE04F01F01012088406109A5
:10858000890001F1E021C1F8000110BD2E2E2F4419
:108590007269766572732F53544D33324631787851
:1085A0005F48414C5F4472697665722F5372632F46
:1085B00073746D3332663178785F68616C5F636FB6
:1085C000727465782E63000070B515460C46064639
:1085D000102A03D3BA2114A004F024FE102C03D3D4
:1085E000BB2111A004F01EFE1E480068C0F3022348
:1085F000C3F107022046042A00D90422191D0729C5
:1086000001D2002300E0DB1E012404FA02F1491E1E
:10861000014099409C40641E2C4021433046BDE8F7
:10862000704002F016BD00002E2E2F447269766550
:1086300072732F53544D3332463178785F48414C32
:108640005F4472697665722F5372632F73746D3352
:1086500032663178785F68616C5F636F72746578D9
:108660002E6300000CED00E010B5044607280BD087
:10867000062C09D0052C07D0042C05D0032C03D0E0
:10868000A22108A004F0CEFD154904F007020868F5
:108690004FF6FF03184040EA0220124A10430860D8
:1086A00010BD00002E2E2F447269766572732F5311
:1086B000544D3332463178785F48414C5F4472699B
:1086C0007665722F5372632F73746D33326631780F
:1086D000785F68616C5F636F727465782E63000009
:1086E0000CED00E00000FA057047006841620020D0
:1086F0007047F0B500680023446A31B1856A4FF4D1
:10870000827604EB15444D1E0AE044EA0241816280
:108710000FE006EB8307C7595B1C04EB1744DBB281
:10872000AB42F6DB4FF4807303EB810144EA024273
:1087300042500020F0BDD0F8DC0303F016BEC1EBC0
:10874000C10200EB8202D0F8DC03526B03F083BD60
:10875000C1EBC10200EB8202D0F8DC03D2F8F421B5
:1087600003F0CEBDD0F8DC0303F001BE10B5044623
:108770000A460B0601F07F00C0EBC00104EB81014B
:1087800001D5283101E001F5F4710870D009487075
:1087900094F8A803012809D0012084F8A8032068D0
:1087A00004F00EF9002084F8A80310BD022010BDCB
:1087B00070B50A460446090602F07F0005D5C0EBF5
:1087C000C00104EB8101283105E0C2EBC20104EBDA
:1087D000810101F5F47100258D700870D009487091
:1087E00094F8A803012809D0012084F8A803206880
:1087F00004F067FA84F8A853002070BD022070BD11
:1088000070B504460D460E0601F07F00C0EBC001B6
:1088100004EB810101D5283101E001F5F471087004
:10882000E80948708A60CB7094F8A803012809D041
:10883000012084F8A803206804F02CF8002084F8B4
:10884000A80370BD022070BD70B50C4601F07F0515
:10885000C5EBC50100EB8101C1F8F4210022C1E99B
:108860007F3281F8E92181F8E851006801F5F4715F
:10887000620603D004F086FA002070BD04F07CF993
:10888000FAE770B50D460446090605F07F0005D5E8
:10889000C0EBC00104EB8101283105E0C5EBC50147
:1088A00004EB810101F5F47101228A700870E80976
:1088B000487094F8A803012807D084F8A8232068FA
:1088C00004F031FA680602D006E0022070BD04F51B
:1088D0006B71206804F0DEF9002084F8A80370BDF5
:1088E00070B50C4601F07F05C5EBC50100EB8101B9
:1088F0004A630022C1E90F32012281F8292001F8E0
:10890000285F0068620603D004F03CFA002070BDC6
:1089100004F032F9FAE700002DE9F05F0446006840
:108920000026054604F050FB00287DD1206804F0A5
:1089300074FB002878D0206804F06FFB80074FF0AC
:10894000020B02D52168C1F814B0206804F065FB61
:1089500000034FF008092CD5206804F040FB0746BF
:1089600025E0F80721D0F1B2206804F04EFB8046E4
:10897000C00708D005EB46100121C0F8081BF1B272
:108980002046FFF7E5FE5FEA087006D5204600F0B6
:1089900039FA05EB4610C0F8089B5FEAC86004D5B9
:1089A00005EB46101021C0F8081B7F08761C002F2D
:1089B000D7D1206804F031FB40034FF0400A48D57E
:1089C000206804F005FB0746002640E0F8073CD08D
:1089D000F1B2206804F00AFB8046C0070FD00121E5
:1089E000D5F8342801FA06F08243C5F8342805EB9F
:1089F0004610C0F80819F1B22046FFF7A0FE5FEA62
:108A0000087003D505EB4610C0F808995FEAC86006
:108A100004D505EB46101021C0F808195FEA48603C
:108A200005D505EB461000E011E1C0F808A95FEAA2
:108A3000887003D505EB4610C0F808B95FEA0860F6
:108A400003D53146204602F01BFB7F08761C002F21
:108A5000BCD1206804F0E1FA00280CDAD5F804084B
:108A600020F00100C5F80408204600F0AFF92168A5
:108A70004FF000404861206804F0CFFA00050AD5A5
:108A8000D5F80808C00702D0204600F0DBF92168BD
:108A90004FF400604861206804F0BFFAC10404F597
:108AA0006B7B3BD5D5F8040820F00100C5F804081D
:108AB0001021206804F076FA0020FF2107E000BFB3
:108AC00005EB4012C2F80819C2F8081B401C626886
:108AD0008242F5D84FF0FF30C5F81808D5F81C08C9
:108AE00040F00110C5F81C08D5F8140840F00B0040
:108AF000C5F81408D5F8100840F00B00C5F81008A8
:108B0000D5F8000820F4FE60C5F800085946206832
:108B100004F0C0F821684FF480504861206804F0E8
:108B20007CFA800416D5206803F0FCFE2068C1683A
:108B300021F47051C1600320C4E9030A2068C168B0
:108B400041F4A051C160204600F030F920684FF494
:108B500000514161206804F060FAC00636D52068F3
:108B6000816921F010018161D5F8208008F00F00A3
:108B7000C0EBC00004EB8007C8F3434007F5F4776F
:108B8000022802D0062812D01BE047F6F07118EA3E
:108B9000010F16D0C8F30A1290462846F96804F06F
:108BA00040FAF8684044F860B869404408E0082298
:108BB0005946284604F035FAB969C8F30A10084442
:108BC000B8612068816941F010018161206804F07A
:108BD00024FA000705D5204600F0FCF82168C1F80A
:108BE0001490206804F019FAC00207D5F1B22046AB
:108BF00000F02FF821684FF480104861206804F0DD
:108C00000CFA800207D5F1B2204600F026F8216860
:108C10004FF400104861206804F0FFF9400006D5C9
:108C20002046FFF788FD21684FF0804048612068AA
:108C300004F0F3F940070AD520684568680702D5B3
:108C40002046FFF78FFD2068416829434160BDE859
:108C5000F09FD0F8DC0303F0DFBBD0F8DC0303F0B7
:108C6000DDBB00002DE9F04186B004004FF00005A7
:108C70000CD02068B0F1A04F03D09F212FA004F0AA
:108C8000D1FA94F8A903002620B108E0012006B02B
:108C9000BDE8F08184F8A863204600F06BF803205B
:108CA00084F8A903206803F061FF04F11001142285
:108CB00088466846FDF7B1FA94E80F0003F04CFED1
:108CC0000021206804F0BDF95FF00107C5EBC50085
:108CD00004EB800080F8297000F8285FC580C6701A
:108CE0008660C6606D1C46610F2DEFD35FF00000FB
:108CF000C0EBC00104EB810181F8E96181F8E80172
:108D0000C88581F8EB61C1F8F061C1F8F461401CDD
:108D1000C1F8FC610F28EBD3142241466846FDF7E9
:108D20007CFA94E80F0003F09BFE84F8246084F83A
:108D3000A973206803F087FE0020A8E72E2E2F4499
:108D40007269766572732F53544D33324631787899
:108D50005F48414C5F4472697665722F5372632F8E
:108D600073746D3332663178785F68616C5F7063FD
:108D7000642E630008B50068B0F1A04F12D10A4814
:108D8000416941F4805141614069002200F4805002
:108D9000009011464320FFF717FCBDE80840432030
:108DA000FFF7E2BB08BD00000010024010B504460A
:108DB000C068012100B90021D4F8DC0303F084FB72
:108DC000D4F8DC03BDE8104003F04DBBD0F8DC0361
:108DD00003F068BBD0F8DC0303F06ABB10B50446AF
:108DE00090F8A80301280BD0012084F8A80384F888
:108DF0002410206804F03BF9002084F8A80310BD7B
:108E0000022010BDD0F8DC2300F56B71104603F092
:108E10006EBB10B5044690F8A803012810D00120BD
:108E200084F8A80301462046FFF75EFC206803F0A3
:108E3000FEFD206804F0A0F8002084F8A80310BD0F
:108E4000022010BD10B50446D0F8DC0303F09CFBF3
:108E50002068D0F8001E41F00101C0F8001EA06992
:108E6000002804D00248016841F00601016010BDED
:108E700010ED00E070B50D46040006D0012C04D0C2
:108E80004FF4F17114A004F0CDF9012D06D0022D9C
:108E900004D040F2E31110A004F0C4F91C480168AA
:108EA00021F002010160016821F00101214301600C
:108EB000184C206840F004002060012D09D040BF0C
:108EC00002F01FF902F01DF9206820F00400206074
:108ED00070BD30BFF8E700002E2E2F447269766512
:108EE00072732F53544D3332463178785F48414C7A
:108EF0005F4472697665722F5372632F73746D339A
:108F000032663178785F68616C5F7077722E6300CB
:108F10000070004010ED00E02DE9F84F04460068B5
:108F2000A44DC1074FF001094FF4004A4FF4404BE4
:108F30000ED1810770D441077DD401077CD4C006CF
:108F40007BD47C219CA004F06DF92078C00760D010
:108F5000606860B1B0F5807F09D0B0F5007F06D0C1
:108F6000B0F5407F03D0822193A004F05BF9E8695B
:108F70000026C00008D4E86940F08050E861E86944
:108F8000012600F0805000909A480168C90512D46B
:108F90000168804641F480710160FEF74FFF07468B
:108FA00005E000BFFEF74AFFC01B64287DD8D8F853
:108FB0000000C005F6D5286A10F440701ED0A188C4
:108FC00001F44071814219D0286A8B4920F4407025
:108FD000C1F8009000220A602862C0070ED0FEF798
:108FE0002DFF074641F2883805E000BFFEF726FF57
:108FF000C11B4145DAD8286A8007F7D5286A61681D
:1090000020F44070084328621EB1E86920F08050C7
:10901000E8612078800716D5A06850B1B0F5804F80
:1090200007D0504505D0584503D0C92162A004F0AF
:10903000F9F8686802E009E01AE028E0A16820F485
:10904000404008436860207840070ED5E06830B1A2
:10905000B0F5003F03D0D42157A004F0E3F8E86A4C
:10906000E16820F400300843E862207800070ED55C
:10907000206930B1B0F5802F03D0DE214EA004F07E
:10908000D1F8E86A216920F480200843E862E86AA0
:10909000800302D4E86A400376D52868C0006BD408
:1090A0006069B0F5C04F1BD000E05EE0B0F5E04F66
:1090B00016D0504514D0B0F5104F11D0B0F5204F58
:1090C0000ED0B0F5304F0BD0584509D0B0F5604FF9
:1090D00006D0B0F5704F03D0F32137A004F0A2F80A
:1090E000A06908B310281FD020281DD030281BD01D
:1090F000402819D0502817D0602815D0702813D0D8
:10910000802811D090280FD0A0280DD0B0280BD0E7
:10911000C02809D0D02807D0E02805D0F02803D0F7
:10912000F42125A004F07EF82868400105D5E86AFE
:10913000A16900F0F000884224D1E86AA16920F01A
:10914000F0000843E862E86A616920F4704008436F
:10915000E8622A49C1F87090FEF770FE064607E003
:10916000FEF76CFE801B642802D90320BDE8F88F4F
:1091700028688000F4D507E0E86A616900F470406F
:10918000884201D00120F1E72078C0060FD5E069C0
:10919000B0F5800F05D020B140F2251106A004F0F3
:1091A00041F86868E16920F48000084368600020A5
:1091B000DCE70000001002402E2E2F447269766515
:1091C00072732F53544D3332463178785F48414C97
:1091D0005F4472697665722F5372632F73746D33B7
:1091E00032663178785F68616C5F7263635F65785F
:1091F0002E630000007000404004424200004242E2
:109200002DE9F0470E46050004D140F22E3181A031
:1092100004F008F82868C1070AD1810708D441077B
:1092200006D4000704D440F22F317AA003F0FAFFED
:1092300046B1012E06D0022E04D04FF44C7175A019
:1092400003F0F0FFDFF80482D8F8000000F0070018
:10925000B0420CD2D8F8001021F007013143C8F811
:109260000010D8F8000000F00700B04272D1287852
:10927000774C80071CD5A868A0B1802812D0902810
:1092800010D0A0280ED0B0280CD0C0280AD0D028EA
:1092900008D0E02806D0F02804D040F249315DA083
:1092A00003F0C0FF6068A96820F0F0000843606028
:1092B0002878C00753D0686868B1012821D00228F7
:1092C00022D04FF4547153A003F0ACFF686801281A
:1092D00017D0022818D020688007002850DA60686C
:1092E000696820F0030008436060FEF7A7FD696825
:1092F000074641F28830012910D0022981461AD050
:1093000029E020688003E8E720688001E5E700BFE6
:10931000FEF794FDC11B494501D918E081466068FC
:10932000C0F381000128F3D119E000BFFEF786FDEC
:10933000C11B49450BD86068C0F381000228F5D1F4
:109340000DE000BFFEF77AFDC11B494503D903209C
:10935000BDE8F08714E0606810F00C0FF2D1D8F887
:109360000010404601F00701B1420BD9016821F01D
:10937000070131430160006800F00700B04201D0EE
:109380000120E5E728784FF4806640074FF4A06796
:109390004FF4C0684FF4E06914D5E86860B1B0429A
:1093A0000AD0B84208D0404506D0484504D04FF412
:1093B000697118A003F036FF6068E96820F4E06086
:1093C000084360602878000715D5286960B1B0426D
:1093D0000AD0B84208D0404506D0484504D040F2F3
:1093E000AB310CA003F01EFF6068296920F46050C7
:1093F00040EAC100606000F057F86168154AC1F3A7
:109400000311515CC840144908600020FFF71EF8A2
:1094100000209DE72E2E2F447269766572732F53BC
:10942000544D3332463178785F48414C5F4472691D
:109430007665722F5372632F73746D333266317891
:10944000785F68616C5F7263632E63000020024086
:1094500000100240B0D2000800000020014800685F
:109460007047000000000020044805490068496872
:10947000044AC1F30221515CC8407047000000203B
:1094800000100240C0D2000804480549006849683D
:10949000044AC1F3C221515CC8407047000000205B
:1094A00000100240C0D20008F0B523A289B00FCA54
:1094B00004AC84E80F0024A10FC98DE80F002649F1
:1094C0004A68264802F00C03042B2FD0082B2DD11C
:1094D00004A8C2F38343C45CD00329D5C86A00F052
:1094E0000F001DF80020C86AC00316D5C86AC96AF3
:1094F000C0F30310C1F30321401C891CA0FB02230D
:10950000A1FB0416154F0025A1FB070C06FB07C69F
:1095100001FB0561FCF740FE03E010486043B0FB2F
:10952000F2F09DF81D10A14200D1400809B0F0BD35
:109530000B486043FAE7000000000405060708092D
:1095400000000000000D00000102030405060708EA
:10955000090A0B0C0D0E0F100010024000127A00C9
:1095600000093D002DE9F84F040004D14FF4B87113
:10957000F2A003F057FEFF4EFF4D20684FF00109A7
:1095800000274FF4803A60B1C1070DD1810763D441
:1095900001077DD440077CD440F27111E7A003F0AD
:1095A00041FE2078C00754D0A0684FF4A02840B1F5
:1095B000504506D0404504D040F27711DFA003F0BB
:1095C00031FE6868C0F38100012807D06868C0F3E5
:1095D0008100022809D16868C00306D52868800385
:1095E00037D5A068002878D033E0A068504503D173
:1095F000286840F4803009E008B140450DD0286863
:1096000020F480302860286820F480202860A0683A
:1096100090B1FEF713FC80460AE0286840F48020F1
:109620002860E5E7FEF70AFCA0EB080064287AD87A
:1096300028688003F6D50CE0FEF700FC804605E0C4
:10964000FEF7FCFBA0EB08006428F0D82868800334
:10965000F6D42078800750D5606930B1012804D055
:1096600040F2AB11B5A003F0DDFDA0691F2804D9BD
:109670004FF4D671B1A003F0D5FD686810F00C0F5F
:109680000AD06868C0F3810002280CD1686801E044
:1096900036E071E0C00306D42868800715D56069FC
:1096A00001281AD111E06069C0B1C6F80090FEF738
:1096B000C5FB804606E000BFFEF7C0FBA0EB08003C
:1096C0000228B4D828688007F6D52868A16920F058
:1096D000F80040EAC10028600FE055E13760FEF76E
:1096E000ADFB804606E000BFFEF7A8FBA0EB08003C
:1096F00002289CD828688007F6D42078000738D53F
:10970000DFF87882E06928B3012806D04FF4F671BB
:109710008AA003F087FDE069E0B1C8F80090FEF789
:109720008DFB804606E0B3E1FEF788FBA0EB080066
:1097300002288AD8686A8007F6D591484FF4FA5112
:109740000068B0FBF1F0009000BF0098411E00914E
:10975000FAD20EE0C8F80070FEF770FB804605E014
:10976000FEF76CFBA0EB08000228AAD8686A800705
:10977000F6D4207840076FD520694FF0000840B13B
:10978000012806D0052804D040F21B216BA003F06D
:1097900049FDE869C00009D4E86940F08050E861FB
:1097A000E8694FF0010800F08050009075480168AA
:1097B000C90511D4016841F480710160FEF73EFBD8
:1097C000834605E0FEF73AFBA0EB0B00642890D837
:1097D0006C480068C005F5D5206901280AD008B199
:1097E000052811D0286A20F001002862286A20F09C
:1097F000040002E0286A40F0010028622069A8B154
:10980000FEF71CFB83460DE0286A40F00400286246
:10981000F0E700BFFEF712FBA0EB0B0141F288302E
:10982000814286D8286A8007F4D50EE0FEF706FB51
:10983000834607E0FEF702FBA0EB0B0141F2883004
:10984000814292D8286A8007F4D4B8F1000F03D07F
:10985000E86920F08050E861E06A00286DD00128B6
:1098600009D0022807D04FF4187134A003F0DAFCB5
:10987000E06A002861D06868C00307D56868C0F353
:109880008100022802D1E86AC0037DD4E06A022880
:1098900008D0E86A20F48030E862B766FEF7CEFAB6
:1098A0008046A9E0206BB0F5C06F1CD0B0F5E06F2A
:1098B00019D0B0F5006F16D0B0F5106F13D0B0F519
:1098C000206F10D0B0F5306F0DD0B0F5406F0AD0DA
:1098D000B0F5606F07D0B0F5706F04D04FF41C7115
:1098E00016A003F09FFC606B10B3102820D0202836
:1098F0001ED030281CD040281AD0502818D06028FC
:1099000016D0702814D0802812D0902810D0A0280B
:109910000ED0B0280CD0C0280AD0D02808D0E0281B
:1099200006D0F02804D040F2712104A003F07AFCA4
:109930002868C0002ED5E86A27E060E02E2E2F446C
:109940007269766572732F53544D3332463178788D
:109950005F48414C5F4472697665722F5372632F82
:1099600073746D3332663178785F68616C5F7263EF
:10997000632E630000004242001002408004424215
:10998000000000200070004081E0616B00F0F000FA
:1099900088427CD1B766FEF751FA804606E000BFE8
:1099A000FEF74CFAA0EB0800642871D82868000183
:1099B000F6D4E86A616B20F0F0000843E862E86AD8
:1099C000216B20F470600843E862C6F86890FEF7E7
:1099D00035FA804606E000BFFEF730FAA0EB08003B
:1099E0006428E2D828680001F6D508E0FEF726FAD8
:1099F000A0EB08006428D8D828680001F6D4206AB3
:109A000000287DD001280AD0022808D040F2B921D0
:109A1000AFF2D80003F006FC206A002870D0686816
:109A2000C0F38100022832D0206A022804D03766B1
:109A3000FEF704FA044695E0606A38B1504505D057
:109A400040F2C221AFF20C1003F0ECFBA06AB0F5BB
:109A5000002F17D0B0F5402F14D0B0F5801F11D0D3
:109A6000B0F5A01F0ED0B0F5C01F0BD0B0F5E01FB1
:109A700008D0B0F5501F05D040F2C321AFF244101A
:109A800003F0D0FB3766FEF7D9F9074607E06EE032
:109A900065E000BFFEF7D2F9C01B02285FD8286836
:109AA0008001F7D4606A5746B8423BD1E06818B3EA
:109AB000012821D002281FD003281DD004281BD044
:109AC000052819D0062817D0072815D0082813D044
:109AD000092811D00A280FD00B280DD00C280BD044
:109AE0000D2809D00E2807D00F2805D040F2D92123
:109AF000AFF2B81003F096FB606848B1B84200E0DE
:109B000033E005D040F2DB21AFF2D01003F08AFB46
:109B1000E86A61680843E862E86AE16820F00F00DB
:109B20000843E862D4E909010843696821F4741123
:109B300008436860C6F86090FEF780F9044604E0C8
:109B4000FEF77CF9001B022809D828688001F7D5A8
:109B50000BE000BFFEF772F9001B022802D90320B8
:109B6000BDE8F88F28688001F4D40020F8E70120D0
:109B7000F6E7000010B54FF0E024042809D020B12A
:109B800040F2D91105A003F04DFB206920F004003C
:109B900002E0206940F00400206110BD2E2E2F4409
:109BA0007269766572732F53544D3332463178782B
:109BB0005F48414C5F4472697665722F5372632F20
:109BC00073746D3332663178785F68616C5F636F90
:109BD000727465782E6300000949087800280ED059
:109BE0000120084A07E000BF52F820305B1C42F811
:109BF0002030401CC0B20B785B1C9842F4D37047F5
:109C0000FC0000201C14002010B5401EB0F1807F25
:109C100001D3012010BD4FF0E02460610F216017D7
:109C200001F017FA0020A06107202061002010BD7C
:109C300010B5FFF7D1FF10BD70B50D4604460068A2
:109C40002E49884216D0B0F1804F13D02C4988425B
:109C500010D02C4988420DD02B4988420AD02B497C
:109C6000884207D02A49884204D04FF4C76129A00E
:109C700003F0D8FA286890B1102810D020280ED010
:109C800030280CD040280AD0502808D0602806D0B0
:109C9000702804D040F239611EA003F0C3FA68684E
:109CA000802805D020B140F23A611AA003F0BAFA38
:109CB00094F83C0001281FD0012084F83C000221C8
:109CC00084F83D1021684A6822F070024A602168D9
:109CD0004A682B681A434A6021688A6822F0800229
:109CE0008A6021688A686B681A438A6084F83D003C
:109CF000002084F83C0070BD022070BD002C0140A3
:109D00000004004000080040000C0040001000402B
:109D1000001400402E2E2F447269766572732F5303
:109D2000544D3332463178785F48414C5F44726914
:109D30007665722F5372632F73746D333266317888
:109D4000785F68616C5F74696D5F65782E63000091
:109D50002DE9F0410C4605007ED071492868884203
:109D600010D0B0F1804F0DD06E4988420AD06E49B4
:109D7000884207D06D49884204D040F6D7016CA0D4
:109D800003F050FAA86860B110280AD0202808D043
:109D9000402806D0602804D040F6D80164A003F023
:109DA00041FA286950B1B0F5807F07D0B0F5007F47
:109DB00004D040F6D9015EA003F034FAA86930B1AE
:109DC000802804D040F6DA0159A003F02BFA20686D
:109DD000012808D0022806D0032804D040F6DB0171
:109DE00053A003F01FFAA068012808D0022806D06B
:109DF000032804D040F6DC014DA003F013FAA0695B
:109E0000012808D0022806D0032804D040F6DD013E
:109E100047A003F007FA606830B1022804D040F68A
:109E2000DE0143A003F0FEF9606930B1022804D0DE
:109E300040F6DF013EA003F0F5F9E06850B10428D8
:109E400008D0082806D00C2804D04FF40E6138A0A2
:109E500003F0E8F9E06900E01FE050B1042808D001
:109E6000082806D00C2804D040F6E10130A003F009
:109E7000D9F920690F2804D940F6E2012CA003F09B
:109E8000D1F9206A0F2804D940F6E30128A003F095
:109E9000C9F995F83D0018B108E00120BDE8F0814E
:109EA000002085F83C00284600F05EF8022085F886
:109EB0003D002868816821F007018160291D28681C
:109EC00001F0AAFD2A6890689169166A2368A7695B
:109ED000034340F20330814341EA0721A068E76968
:109EE00008434FF6FC418843E16840EA07200143FC
:109EF0002069276A000140EA073008436168646905
:109F000026F0AA0646EA0414214393602A68906169
:109F100028680162012085F83D000020BEE70000AE
:109F2000002C01400004004000080040000C0040EC
:109F30002E2E2F447269766572732F53544D33322F
:109F4000463178785F48414C5F4472697665722F7C
:109F50005372632F73746D3332663178785F686142
:109F60006C5F74696D2E630000B500680B4985B0A5
:109F7000884211D10A48C16941F00201C161C0693A
:109F8000694600F002000490C0200090002001907B
:109F900002900448FDF730FD05B000BD000400400C
:109FA000001002400008014070B50D4604460068EC
:109FB0001649884210D0B0F1804F0DD01449884224
:109FC0000AD01449884207D01349884204D040F689
:109FD000661112A003F026F99DB1042D04D00122D0
:109FE0000021206801F056FD01220421D4F8000070
:109FF00001F050FD2068016841F00101016000207E
:10A0000070BD012200212068F2E70000002C014011
:10A010000004004000080040000C00402E2E2F4499
:10A020007269766572732F53544D333246317878A6
:10A030005F48414C5F4472697665722F5372632F9B
:10A0400073746D3332663178785F68616C5F746900
:10A050006D2E630070B5040020D0A069334900283C
:10A06000334A344B20681BD088420AD0904208D033
:10A07000984206D040F20F112FA003F0D3F8A06948
:10A08000F8B1A069B0F5807F1BD0B0F5007F18D083
:10A09000B0F5407F15D04FF488710FE0012070BDFE
:10A0A00088420ED090420CD098420AD03149884262
:10A0B00007D03149884204D04FF48A711EA003F0C2
:10A0C000B1F8A06838B1B0F5805F04D04FF48B715F
:10A0D00019A003F0A7F894F83900002520B984F8F6
:10A0E0003850204600F04AF8242084F839002068CF
:10A0F000C16821F40051C160204601F033FD2068A1
:10A10000016921F4904101612068416921F02A012F
:10A1100041612068C16841F40051C160E5632020BD
:10A1200084F8390084F83A00002070BD00380140FE
:10A1300000440040004800402E2E2F44726976658E
:10A1400072732F53544D3332463178785F48414C07
:10A150005F4472697665722F5372632F73746D3327
:10A1600032663178785F68616C5F756172742E63F6
:10A1700000000000004C00400050004010B5006896
:10A18000114986B088421DD11048C16941F40021AF
:10A19000C161C0690E4C00F4002004904FF480604F
:10A1A0000090022001900320039069462046FDF7AD
:10A1B00023FC0021E014CDE900010291694620460C
:10A1C000FDF71AFC06B010BD004C00400010024024
:10A1D0000010014010B504003FD02149206888429A
:10A1E00003D0AF211FA003F01DF8606858B180288C
:10A1F00009D0B0F5807F06D0B0F5C07F03D0B02184
:10A2000018A003F00FF8A06840383F2803D9B12107
:10A2100014A003F007F8E06840383F2803D9B221C2
:10A2200010A002F0FFFF2069B0F5007F04D018B144
:10A23000B3210CA002F0F6FF204600F031F8E068F0
:10A24000216840F080000860616820690843A168C7
:10A25000084321684860002010BD012010BD0000A7
:10A26000002C00402E2E2F447269766572732F5396
:10A27000544D3332463178785F48414C5F447269BF
:10A280007665722F5372632F73746D333266317833
:10A29000785F68616C5F777764672E630000000009
:10A2A00008B500680649884208D10648C16941F4EA
:10A2B0000061C161C06900F40060009008BD000049
:10A2C000002C004000100240C168006801600020BE
:10A2D0007047FEE70148FDF7B9BD0000BC0A002049
:10A2E00010B5406A01680A6822F480620A600021A1
:10A2F0004185426B5163826B516390F83D3020225F
:10A30000602B80F83D2080F83E1007D001680A6875
:10A3100022F001020A60FDF791FE10BD01640168A0
:10A320000A6822F001020A60FDF78EFD10BD0000F0
:10A3300070B590F83D1004460025202600682929B4
:10A340002DD02A292BD094F83D10602904D04168E3
:10A35000090501D484F83D60256384F83E50016806
:10A3600021F40061016020684168090537D5416822
:10A3700021F400614160606B344990F82120012A8A
:10A3800012D04163606BFDF715F938B3206801689E
:10A3900021F00101016084F83D60606B1CE02563E1
:10A3A000282184F83D10DAE7A06B4163A06BFDF72C
:10A3B00001F998B120684169C943490604D401698B
:10A3C000606A421C626201702068016821F001012C
:10A3D000016084F83D60A06B416B88470FE094F802
:10A3E0003D1060291DD04169C943490604D4016963
:10A3F000606A421C626201702046FDF71FFE94F8FD
:10A400003D0028280CD1206C400709D51048E06297
:10A41000256384F83D6084F83E502046FDF72EFF0A
:10A4200070BD84F83D6025644169C943490604D480
:10A430000169606A421C626201702068016821F053
:10A44000010101602046FDF7FFFCD8E7E1A200080A
:10A450000000FFFF01684A69D24352050CD46FF433
:10A4600080624A6104210164002140F8301F2022EB
:10A4700042730173012070470020704710B5C26A13
:10A48000448D2F4B0168032C03D0448D022C15D032
:10A490000AE0042A03D0082A01D09A4203D10A68AC
:10A4A00022F480620A6001680A69416A4B1C4362B7
:10A4B0000A70418D491E4185002010BD042A12D02A
:10A4C000082A10D09A420ED0022A0A6802D022F43A
:10A4D000806201E042F480620A6001684A6822F406
:10A4E00040724A6008E04A6822F440724A6001689B
:10A4F0000A6842F400720A6001680A69416A4B1CEA
:10A5000043620A70418D491E418501680A69416AAA
:10A510004B1C43620A70418D491E4185202180F801
:10A520003D100021016390F83E2080F83E10402A43
:10A5300002D0FDF7A4FEBFE7FDF740FFBCE7000037
:10A540000000FFFF10B590F83D1022294CD1418D3D
:10A55000032909D901680A69416A4B1C43620A70E0
:10A56000418D491E41853FE0022909D0032907D0CA
:10A57000C16A022901680A6818D022F4806217E0D3
:10A58000C16A022901680A6807D022F480620A6061
:10A5900001680A6842F4006201E042F480620A60E5
:10A5A0000068416821F4806141601DE042F48062EE
:10A5B0000A6001684A6822F4E0624A6001680A6938
:10A5C000416A4B1C43620A70418D491E418520211E
:10A5D00080F83D100021016390F83E2080F83E1085
:10A5E000402A03D0FDF74BFE002010BDFDF7E6FE2C
:10A5F000FAE70000F8B50446C06A1E460D46174645
:10A60000042807D0012805D010F5803F02D0206B28
:10A61000122804D12068016841F48071016013465A
:10A6200000224FF001112046009600F040FAA0B938
:10A630002069B0F5804F12D00620216800EAD510BD
:10A6400040F0F000086133463A460E49204600F0DB
:10A650005FFA38B1206C042811D00320F8BD05F052
:10A66000FE0000E0E8B221680861064933463A4638
:10A67000891F204600F04CFA0028EBD1F8BD0120DC
:10A68000F8BD00000800010010B5C26A90F83D1046
:10A69000212921D1418D49B1416A4A1C4262026897
:10A6A00009781161418D491E418515E02023002163
:10A6B000042A13D0082A11D012F5803F0ED0026868
:10A6C000546824F4E06454601122026380F83E1060
:10A6D00080F83D30FDF7D4FD002010BD02685468BD
:10A6E00024F4E06454600268146844F40074146054
:10A6F000016380F83D3090F83E2080F83E10402AFB
:10A70000E8D1FDF75CFEE7E710B590F83D1090F852
:10A710003E30C26A048D24B1212934D0402B30D080
:10A7200074E02129FAD120230021042A13D0082A19
:10A7300011D012F5803F0ED00268546824F4E06412
:10A7400054601122026380F83E1080F83D3000BF53
:10A75000FDF796FD5AE00268546824F4E064546002
:10A760000268146844F400741460016380F83D309A
:10A7700090F83E2080F83E10402AE9D1FDF71FFEF8
:10A7800044E0222942D1418D21B190F83E10402968
:10A7900006D032E00068416821F48061416035E014
:10A7A000016D31B1016D012911D0016D022915D062
:10A7B0002CE0C16C0129816C02D0C1F3072108E0B3
:10A7C0000268C9B21161016D891C01651EE0816CCE
:10A7D000C9B202681161016D491CF6E790F83D109D
:10A7E000222904D090F83D10212906D00EE00068FF
:10A7F000016841F48071016008E0416A4A1C4262CC
:10A80000026809781161418D491E4185002010BD03
:10A8100078B590F83E50C26A046B90F83D60002312
:10A820000168222E06D1066D0EB9402D02D0056DAD
:10A8300025B107E04869886900901CE00569B5F515
:10A84000404F1AD0458D85B3458D012D20D0428DC6
:10A85000022A4AD00A6842F480620A6001684A68A3
:10A86000120503D54A6842F480524A6001684A6979
:10A87000896900910365002078BD4A698A69009260
:10A880000A6842F480720A60016D491C0165F2E7B2
:10A8900012F5803F0AD0042A21D0082A1FD0122C9A
:10A8A0001DD0C26A022A09D114E00BE00A6822F422
:10A8B00080620A6001684A68120503D50A6822F4BA
:10A8C00080620AE04A698A6900920A6842F400726A
:10A8D0000A60CFE70A6842F480620A60C6E70A6845
:10A8E00022F480620A600168ECE7C26A022A0A6800
:10A8F0000BD042F400620A6001684A698A690092DA
:10A900000A6822F480620A6006E042F480620A600B
:10A9100001684A698969009101684A681205A9D5E8
:10A920004A6842F480524A60A4E790F83E104029F9
:10A9300009D00169B1F5804F10D0016D99B1016D59
:10A94000012915D01CE0016D19B9416C01F0FE011F
:10A9500014E0416CC9B241F001010FE090F83D10E4
:10A960002129F6D1F1E7416CF02201F4407103E0B6
:10A97000416CF12201F4407142EAD1110068016199
:10A980000020704738B590F83D2001684B6823F4EB
:10A99000E0634B60036800215C6900941C6844F02C
:10A9A00001041C6003681C6824F480641C60036854
:10A9B0005C6824050BD590F83D40222C2BD090F8F4
:10A9C0003D402A2C27D0446B246864684485448D1C
:10A9D000E4B15C69E443640707D41C69436A5D1C05
:10A9E00045621C70438D5B1E438503685C69E443CC
:10A9F000640607D41C69436A5D1C45621C70438D64
:10AA00005B1E4385036C43F004030364036C23B1B2
:10AA1000FFF78EFC1FE0846BD6E72023282A09D09D
:10AA20002A2A07D0292A05D0046B222C0CD0222AEE
:10AA30000AD010E0094AC262016380F83D3080F814
:10AA40003E10FDF71BFC06E0016380F83D3080F806
:10AA50003E10FDF7DFFC002038BD00000000FFFFC6
:10AA600070B516460D4604461AE02046FFF7F2FC84
:10AA700008B1012070BD681C12D025B1FDF7DEF9C8
:10AA8000801BA8420CD954F8400F40F0200044F835
:10AA9000100900202060202161732073032070BD05
:10AAA00020684069C0434007DFD4002070BD2DE915
:10AAB000F0471E4690460D460446C1F30747DDF8B1
:10AAC000209012E0701C10D02EB1FDF7B7F9A0EB6A
:10AAD0000900B04209D9002044F8300F20216173E9
:10AAE000A07320730320BDE8F0872068012F0AD0EF
:10AAF000806925EA00000004000C06D000214145D1
:10AB0000E0D00020EFE74069F3E70121F7E700001C
:10AB10002DE9F0479A4691460D46044600264FF02F
:10AB20002008C1F307472AE020684069C043400578
:10AB300012D42068016841F40071016021686FF44B
:10AB40008060486104202064266384F83D8084F896
:10AB50003C600120BDE8F087B9F1FF3F0FD0B9F1AB
:10AB6000000F05D0FDF76AF9A0EB0A01494506D9A7
:10AB700044F8306F84F80D8026730320EAE72068DC
:10AB8000012F07D0D0F8180025EA00000004000CBF
:10AB9000E0D0C9E74069F7E770B516460D460446B0
:10ABA0001AE02046FFF756FC08B1012070BD681C72
:10ABB00012D025B1FDF742F9801BA8420CD954F8F8
:10ABC000400F40F0200044F81009002020602021B0
:10ABD00061732073032070BD20684069C043000684
:10ABE000DFD4002070BD0000094910B500200B78AB
:10ABF000084A09E002EB00114C7924B10C6814B149
:10AC0000CC68641CCC60401C9842F3D110BD00009D
:10AC1000C90100208014002070B5012000F00CFA5A
:10AC2000324C0025A0780C285DD2DFE800F0060940
:10AC30001E23282D303336394054FCF741F810E0FC
:10AC40002A490C31086820F0300040F080002030A4
:10AC500020F0030040F004000860084600F06AFCA1
:10AC600005E0A078401CA07070BD02F059FA2028C1
:10AC7000F7D070BD0021082000F00EFCF7E700219E
:10AC8000084600F0EFFBF2E70A2128200CE00A2139
:10AC9000292009E00A212A2006E00A212B2003E0CE
:10ACA000FCF74EF801462C2000F08AFCDFE7FCF7A9
:10ACB0002DF80146002000F009FC2028D9D1FCF72E
:10ACC00025F800284FF0200002D000F025F8C8E752
:10ACD00000F020F8C5E7002000F0AEF90021AFF247
:10ACE000C700FBF7EBFEA57070BD0000000100205F
:10ACF00001210846FBF7C3BB0249014808637047BE
:10AD000000140020301500200148FFF7DDBA0000D4
:10AD10005C14002000F060BA00F068BA114810B569
:10AD20000F4901601821416000214FF4E022816049
:10AD3000C0E903124FF40012C0E905210122C261EB
:10AD4000C0E908218162C162FCF732FA002805D00F
:10AD5000BDE810404F2104A002F054BA10BD00001D
:10AD600000640040301500202E2E2F5372632F6395
:10AD7000616E2E63000000002DE9F041424886B06C
:10AD8000816941F010018161816901F01001049134
:10AD9000816941F020018161816901F02001049104
:10ADA000816941F004018161816901F0040104912C
:10ADB000816941F0080181618069344F00F0080029
:10ADC00004900022F1213846FDF702F8DFF8C08038
:10ADD000002201214046FCF7FBFF012241F2020163
:10ADE0004046FCF7F5FF4FF20E300325CDE9000594
:10ADF00069463846FCF700FEF1200126CDE9000641
:10AE00000224694603943846FCF7F6FD40F23D7093
:10AE1000CDE900051F4F69463846FCF7EDFD1E4899
:10AE20006946CDE90040002002903846FCF7E4FD79
:10AE300041F20100CDE90006694603944046FCF763
:10AE4000DBFD1120CDE90040694640460394FCF744
:10AE5000D3FD4EF2E400CDE9000569464046FCF71B
:10AE6000CBFD0420CDE9000569460C48FCF7C4FD84
:10AE7000002211460720FDF7A7FB0720FDF774FB12
:10AE800006B0BDE8F0810000001002400010014053
:10AE9000000C014000080140000031100014014086
:10AEA0000E4810B50C4901600D49416000214FF476
:10AEB00080428160C0E9031241618161C161016228
:10AEC000FDF7C0F8002805D0BDE810404C2105A0D2
:10AED00002F098B910BD000000580040BC0A0020E4
:10AEE000A08601002E2E2F5372632F6932632E63CA
:10AEF0000000000010B518488CB01649016006210A
:10AF00000024C0E90114FF21C0E9031480218161FC
:10AF10000320009001AB02200121042283E81700E6
:10AF200005AB83E8170069460B48FEF711FF18B11F
:10AF300054210AA002F066F9099409A906480A9466
:10AF4000FEF77AFE002803D05B2104A002F05AF934
:10AF50000CB010BD000400407C0800202E2E2F53A2
:10AF600072632F74696D2E63000000000D4810B5E8
:10AF70000B4901604FF4E1314160002181600C22F6
:10AF8000C160C0E904128161C161FFF763F8002864
:10AF900005D0BDE810404B2103A002F033B910BD2D
:10AFA000004C0040A00B00202E2E2F5372632F75F3
:10AFB000736172742E63000010B5002208490948BD
:10AFC00001F014F90849074801F00BFB074905484F
:10AFD00000F042FFBDE81040024801F04FBB000006
:10AFE000900000202002002010000020E800002037
:10AFF0000B4810B509490160891541607F218160C6
:10B00000C16000210161FFF7E5F8002805D0BDE827
:10B010001040462103A002F0F5B810BD002C0040FE
:10B020005C1400202E2E2F5372632F777764672EC7
:10B0300063000000FEE700000449002808704FF09C
:10B04000020001D000F0AAB800F0B2B8FD01002063
:10B0500070470907090E002806DA00F00F0000F11A
:10B06000E02080F8141D704700F1E02080F8001403
:10B07000704700000148FDF74FBC00009C04002011
:10B080002DE9F0470F46C1EBC70100EB81050668CB
:10B09000D5E90F01441A286B2835A04200D2044696
:10B0A000E01C4FEA900806EB471913E0441AA86821
:10B0B000A04200D20446E01C4FEA9008A3B2FAB2C4
:10B0C0003046E96801F0E4FFE8682044E860A869D8
:10B0D0002044A861D9F8180981B2414505D9D5E9BC
:10B0E0000501814201D20028E0D1002C06DC0120BC
:10B0F000D6F83418B8408143C6F834180020BDE8AB
:10B10000F08720BF00BF704710B5214CA068002811
:10B110003CD001210846FBF7B2F960681D4B00EBFB
:10B12000C00203EB82008168042929D001BB53F8D7
:10B13000221040F20D33A1F20D32994219D007DCF2
:10B14000B1F5917F09D0A1F580712B3918D108E0B4
:10B15000022A0AD0332A13D10FE0143000F0B4FAD7
:10B160000EE0143000F0E2FA0AE0143000F0CAFAFF
:10B1700006E0143000F0B4FA02E0143000F0DEFA19
:10B18000BDE8104020210248FBF764BC10BD000060
:10B19000F0130020600F00207047000010B581B24E
:10B1A00000220248FCF714FE002010BD000C0140F4
:10B1B00010B581B201220248FCF70AFE002010BD42
:10B1C000000C014010B581B20248FCF7D5FD00200B
:10B1D00010BD0000000C014010B581B200220248F1
:10B1E000FCF7F6FD002010BD0010014010B581B243
:10B1F00001220248FCF7ECFD002010BD00100140C8
:10B2000010B581B20248FCF7B7FD002010BD000068
:10B21000001001407CB54FF0FF366846FBF76AFD31
:10B220004FF4FA74012221464B48FBF7CDFB012273
:10B2300021464A48FBF7C8FB49480068484CC0F320
:10B24000001024342168042902D968B1002020604C
:10B250002068C0F10400C5B24248052D58D2DFE88D
:10B2600005F005111D2C49000420F0E700213A48A3
:10B27000FBF724FC00213948FBF720FC1020FFF7E6
:10B280004BFD26E000213448FBF718FC0021334831
:10B29000FBF714FC8020FFF73FFD36E000212E482D
:10B2A000FBF70CFC00212D48FBF708FC1020FFF7F2
:10B2B00033FD8020FFF730FD2AE040784FF0000199
:10B2C0000328264807D0FBF7F9FB01212248FBF7AA
:10B2D000F5FB80201AE0FBF7F1FB00211E48FBF78D
:10B2E000EDFB8020FFF716FD1020FFF713FD022075
:10B2F00020600DE0407804280AD100211648FBF7B1
:10B30000DDFB01211548FBF7D9FB1020FFF702FDFB
:10B310009DF80000E8B99DF80100D0B96EB212485E
:10B3200000F030F80D4800F02DF80B4800F02AF836
:10B330000E4800F027F84020FFF7ECFC8020FFF7D4
:10B34000E9FC1020FFF7E6FC2020FFF7E3FCFBF709
:10B350001BFB30467CBD00005B6C0008B56C000830
:10B360000004004000010020556C0008BB6C000880
:10B3700010B501460248FCF7D3FC40B210BD0000F6
:10B380000008014030B50D4C00210D4A237805E03E
:10B39000994201D1012030BD491CC9B202EB01150F
:10B3A0002D688542F4D102EB01110020086000F005
:10B3B000A3FA2078401E2070002030BDC901002073
:10B3C0008014002009490020887148710871C870F4
:10B3D0008870487008701139087048708870C8709B
:10B3E000183148712139487070470000E40100208D
:10B3F0007047000070B50B4901200022C1E9002010
:10B40000094CC1E9024005250846FBF729FC012843
:10B4100006D12A462046BDE87040044901F0BABE74
:10B4200070BD00007014002000F00108140100201D
:10B430001CB5002362F3C7138DF8040061F3040305
:10B4400064208DF805300090022301AA8021044871
:10B45000FCF718FF08B124201CBD20201CBD0000F3
:10B46000BC0A00201CB5002260F3C71206208DF82C
:10B47000040061F3040264208DF80520009002238B
:10B4800001AA80210348FCF7FDFE08B124201CBD61
:10B4900020201CBDBC0A00201CB5002261F3C7128D
:10B4A00060F3040205208DF8040064208DF8052067
:10B4B0000090022301AA80210348FCF7E3FE08B1B3
:10B4C00024201CBD20201CBDBC0A00201CB500226D
:10B4D00060F3461275208DF8040061F304026420C5
:10B4E0008DF805200090022301AA80210348FCF773
:10B4F000C9FE08B124201CBD20201CBDBC0A0020B0
:10B500001CB5002361F301038DF8040062F30513F9
:10B5100064208DF805300090022301AA80210448A0
:10B52000FCF7B0FE08B124201CBD20201CBD00008B
:10B53000BC0A00201CB501218DF8041000788DF89C
:10B54000050064200090022301AA80210348FCF733
:10B5500099FE08B124201CBD20201CBDBC0A00207F
:10B560001CB502218DF8041000788DF805006420C8
:10B570000B46009001AA80210348FCF783FE08B126
:10B5800024201CBD20201CBDBC0A00201CB50021AD
:10B5900060F3C40141F0010003218DF804108DF81F
:10B5A000050064200090022301AA80210348FCF7D3
:10B5B00069FE08B124201CBD20201CBDBC0A00204F
:10B5C000F8B5074600250E462C462248FCF737FD05
:10B5D00024283CD020492A2F0F7024D006DC202FAD
:10B5E0000BD0282F1FD0292F26D11CE02B2F1AD0AB
:10B5F0002C2F02D0302F1FD10AE017481230021929
:10B6000092F82750025D641CE4B2B242F7D113E015
:10B6100011486030021992F82750025D641CE4B2B0
:10B62000B242F7D108E00C48AE300219957A025DBB
:10B63000641CE4B2B242F8D14D7064200090022341
:10B64000054A80210348FCF71DFE08B12420F8BDFF
:10B650002020F8BDBC0A00200701002038B50220D8
:10B66000FFF786FE164C002560B1657069461548E7
:10B67000FBF76CFB0098642801D2FF202070207833
:10B6800050B113E0002241F288310E48FBF79CF9DB
:10B6900025700120607038BDFBF746FB30B960793A
:10B6A00040B1002020718020FFF734FB0548FFF7F0
:10B6B00069FE38BD142020718020FFF72DFBF5E7CF
:10B6C000EB010020CDB80008017801F01F0203490A
:10B6D0004A70407800F0030008707047F8000020BE
:10B6E000074900228A70027812B18A70407804E01B
:10B6F0008278002A02D08A70C078087070470000F3
:10B70000D7010020084902788A7142784A7182780C
:10B710000A71C278CA7002798A7042794A70807957
:10B72000C0F3410008707047DD0100200078024935
:10B7300000F0010008707047FC0100200149C07949
:10B7400008707047F2010020114910B50F48486396
:10B750002838002101224161C0E9061201604160E0
:10B760008160C1600262016101460948FBF738FB54
:10B7700000210748FBF788FE002805D0BDE81040EF
:10B780002F2104A001F03EBD10BD00009C1500203B
:10B79000301500202E2E5C2E2E5C2E2E5C2E2E5C64
:10B7A00044726F70626F785C437275782050726F6C
:10B7B0006A656374735C436F6D6D6F6E4C69627222
:10B7C00061726965735C43414E5F46696C74657272
:10B7D0002E6300007CB54FF0FF356846FBF78AFA10
:10B7E000374800683649C0F3001024310A68042A3B
:10B7F00002D9C0B10020086008684FF4FA76C0F1A1
:10B800000400C4B2012231462E48FBF7DDF80122C4
:10B8100031462D48FBF7D8F8052C30D2DFE804F08C
:10B82000051121333D000420E5E700212548FBF701
:10B8300045F900212448FBF741F94020FFF76CFA55
:10B8400029E000211F48FBF739F900211E48FBF7CA
:10B8500035F92020FFF760FA27E000BFFFF75AFA1A
:10B860000DE000211748FBF729F900211648FBF7E6
:10B8700025F94020FFF750FA2020FFF74DFA9DF8F8
:10B880000000A0B119E000210F48FBF717F90121D2
:10B890000C48FBF713F92020E0E700210948FBF7EB
:10B8A0000DF901210848FBF709F94020D6E79DF87A
:10B8B000010010B965B2FBF767F828467CBD0000AF
:10B8C00000040040556C0008BB6C000803490120CF
:10B8D00008700021AFF20B00FBF7F0B8EB0100207D
:10B8E00001490870704700000001002001490870FC
:10B8F00070470000CA01002030B509490020094BFB
:10B9000009780546491E08E003EB001214681CB9CB
:10B9100014690CB115611460401C8842F4D130BD2B
:10B92000C90100208014002010B5FCF775FDFEF75A
:10B930007FF9BDE81040FFF757B9000070B59CB023
:10B94000012500242804CDE902040226CDE908607F
:10B950000095059501944FF4E010CDE90A0468467E
:10B96000FDF700FE00B1FEE70F20CDE90E064FF413
:10B970008060CDE9104002210EA81294FDF740FC32
:10B9800000B1FEE7102013901A9413A8FDF7C4FA33
:10B9900000B1FEE7FDF762FD4FF47A71B0FBF1F004
:10B9A000FEF732F90420FEF7E5F8044805670022A7
:10B9B0001146501EFCF708FE1CB070BD000042424C
:10B9C0001048016841F00101016041680E4A1140D0
:10B9D000416001680D4A11400160016821F4802135
:10B9E0000160416821F4FE014160016821F0A0512D
:10B9F00001604FF47F0181600021C1620549044864
:10BA000008607047001002400000FFF0FFFFF6FEE4
:10BA10000080000808ED00E0F0B50268194B1A4CF0
:10BA20001A4D1B4E4FF08047984207D0B84205D0C0
:10BA3000A04203D0A84201D0B04204D122F0700C41
:10BA40004A6842EA0C02984207D0B84205D0A042A8
:10BA500003D0A84201D0B04203D122F44074CA6896
:10BA6000224322F080044A69224302608A68C2624B
:10BA70000A688262984201D109690163012141612A
:10BA8000F0BD0000002C0140000400400008004010
:10BA9000000C004070B50446164816460D46844218
:10BAA00010D0B4F1804F0DD0134884420AD013480F
:10BAB000844207D01248844204D041F2F74111A0D9
